:020000040800F2
:10000000B8700024590400089B9800085395000814
:1000100099980008051A0008CFE3000800000000C6
:10002000000000000000000000000000990300082C
:10003000B51B000800000000F5030008C3B6000867
:1000400073040008730400087304000873040008B4
:100050007304000873040008751C00087B1C00086A
:10006000811C0008871C00088D1C0008291A000844
:10007000351A0008411A00084D1A0008591A0008DC
:10008000651A0008711A0008730400087304000858
:10009000730400087304000873040008931C00082C
:1000A0007304000873040008730400087304000854
:1000B00073040008A5B80008B1B80008730400086C
:1000C0007304000873040008730400087304000834
:1000D00073040008F1C50008FDC5000809C6000842
:1000E0007304000873040008000000007304000893
:1000F0007304000873040008730400087D1A0008E4
:1001000073040008730400087304000873040008F3
:10011000BDB80008C9B800087304000873040008DB
:10012000891A0008730400087304000873040008A7
:1001300073040008730400087304000873040008C3
:1001400000000000000000000000000000000000AF
:1001500073040008730400087304000815C600083F
:100160007304000873040008730400087304000893
:100170007304000873040008730400087304000883
:100180007304000873040008D5B80008E1B800083B
:100190007304000873040008730400087304000863
:1001A0007304000873040008730400087304000853
:1001B0007304000873040008730400087304000843
:1001C0007304000873040008730400087304000833
:1001D000730400089D980008730400087304000865
:1001E0007304000873040008730400087304000813
:1001F0007304000873040008730400087304000803
:1002000073040008730400087304000873040008F2
:1002100073040008730400087304000873040008E2
:100220007304000873040008730400080000000051
:100230007304000873040008000000007304000841
:1002400073040008730400087304000873040008B2
:1002500073040008730400087304000873040008A2
:100260007304000873040008730400087304000892
:100270007304000873040008730400080000000001
:1002800073040008730400087304000800000000F1
:10029000000000007304000800F002F800F06CF8A1
:1002A0000AA090E8000C82448344AAF10107DA45D1
:1002B00001D100F061F8AFF2090EBAE80F0013F0B7
:1002C000010F18BFFB1A43F001031847F431010076
:1002D000143201000A444FF0000C10F8013B13F0F7
:1002E000070408BF10F8014B1D1108BF10F8015B8F
:1002F000641E05D010F8016B641E01F8016BF9D182
:1003000013F0080F1EBF10F8014BAD1C0C1B09D1D8
:100310006D1E58BF01F801CBFAD505E014F8016B4A
:1003200001F8016B6D1EF9D59142D6D370470000DC
:100330000023002400250026103A28BF78C1FBD8EE
:10034000520728BF30C148BF0B607047662912F0C2
:100350002685642900F05481002070471FB512F0F3
:1003600019FD00F0F9FC04000020002112F0F4FC5B
:10037000E0601FBD10B510BD00F0EFFD1146FFF7A6
:10038000EDFF0FF0CDFF00F00DFE03B4FFF7F2FF1D
:1003900003BC00F045FE00002C4B19680868B0E86B
:1003A000F04F80F30988BFF36F8F4FF0000080F3A8
:1003B000118870470000000008480068006880F35A
:1003C00008884FF0000080F3148862B661B6BFF36E
:1003D0004F8FBFF36F8F00DF00BF00BF08ED00E05D
:1003E000DFF80C00016841F470010160704700BF44
:1003F00088ED00E0EFF30980BFF36F8F134B1A68AD
:100400001EF0100F08BF20ED108A20E9F04F106099
:1004100009B44FF0500080F31188BFF34F8FBFF342
:100420006F8F11F0A5FE4FF0000080F3118809BC1A
:1004300019680868B0E8F04F1EF0100F08BFB0EC64
:10044000108A80F30988BFF36F8F7047E0010024A2
:10045000EFF30580704700000948804709480047CE
:10046000FEE7FEE7FEE7FEE7FEE7FEE7FEE7FEE764
:10047000FEE7FEE704480549054A064B70470000C1
:10048000A1B7000899020008B86A0024B8700024D7
:10049000B86C0024B86C002453EA020C00F06980A8
:1004A0002DE9F04B4FF00006002B1FBFB3FA83F588
:1004B00003FA05F424FA05F65E4012BF1643B2FAB9
:1004C00082F502FA05F4C5F120051EBF22FA05FCEB
:1004D00044EA0C04203556EA044C4FEA144418BF91
:1004E000641C4FF000084FF00009904271EB030CC0
:1004F00039D3002919BFB1FA81F701FA07F6B0FA2A
:1005000080F700FA07F6C7F120071EBF20FA07FCA4
:1005100046EA0C062037B6FBF4FCA7EB0507103FB4
:1005200007F01F0BCBF120060CFA0BFB2CFA06F69A
:1005300044BFB3460026202FA4BF5E464FF0000BF9
:100540005BEA060C08BF4FF0010B19EB0B09ABFB84
:10055000027C48EB0608C01B06FB02CC0BFB03CC5D
:1005600071EB0C01C1E70B46024641464846BDE827
:10057000F08B13B54FF000004FF00001AFF3008097
:10058000BDE81C40704700000FB41CB5074B06AA1D
:100590007B4469460090059800F0C1FB0020694645
:1005A00000F0D0FB1CBC5DF814FB0000B10700009C
:1005B00070B5044685690068C10601D5302600E0A3
:1005C0002026C00707D070BDD4E9012130469047EE
:1005D000206A401C20626D1EF6D570BD70B50446C1
:1005E00085690078C00707D170BDD4E901212020BA
:1005F0009047206A401C20626D1EF6D570BD000039
:100600002DE9F0410646002410687529314616A5EB
:1006100010D0AFF30080002802DA404213A507E0B3
:1006200031688A0701D512A502E0490704D511A552
:10063000012401E0AFF3008000210A2206F1240723
:1006400009E0B0FBF2FCB0FBF2F302FB1C0030301F
:1006500078541846491C0028F3D123462A463046D0
:10066000BDE8F04100F0EDB8000000002D000000F2
:100670002B000000200000002DE9F0474FF0000A99
:1006800089460446C0F820A02046E1688847002833
:1006900076D0252806D0D4E901219047206A401C55
:1006A0002062F1E7E168204600268847C4F81CA0D4
:1006B00005460027C4F818A02A2D09D028460FF0B7
:1006C00047FA38B304EB8708303DC8F8185019E0F2
:1006D00059F8041B204604EB87029161E1688847C2
:1006E000012F054618D1E069002820DA26F02006FF
:1006F0001DE0D8F8180000EB800005EB4000303812
:10070000C8F818002046E168884705460FF020FA2F
:100710000028EED1012F0AD02E2D08D12046E16805
:1007200088477F1C0546022F46F02006C4DBA069DF
:10073000002803DA404246F00106A061F00701D02C
:1007400026F010066C2D0AD0682D08D04C2D39D01B
:100750006A2D35D0742D35D07A2D33D016E0E1686E
:100760002F4620468847B84205460AD16C2F27D02D
:100770004FF48060E168064320468847054605E05F
:1007800027E06C2F1AD04FF4807006430DB3A5F10B
:100790004100192802D8203546F400664A46294609
:1007A000204626604E46FFF7D1FD80B101280BD0D0
:1007B000F61D26F0070000F1080965E74020E4E790
:1007C0008020D7E70020D5E706F104095CE728463A
:1007D00061E7206ABDE8F0874FF0000200B51346DC
:1007E00094469646203922BFA0E80C50A0E80C5051
:1007F000B1F12001BFF4F7AF090728BFA0E80C5002
:1008000048BF0CC05DF804EB890028BF40F8042BFA
:1008100008BF704748BF20F8022B11F0804F18BF67
:1008200000F8012B704770477047704710B500F013
:1008300097FA006810BD10B5044600F091FA046004
:1008400010BD2DE9F0470D4699469246044600F149
:1008500024080168880604D5E06921F010012160B0
:1008600000E00120A84201DD471B00E00027A1694C
:100870007A1902EB0900081AA0612078C00602D498
:100880002046FFF795FE002608E0D4E901211AF87A
:1008900006009047206A401C761C20624E45F4DB1F
:1008A0002078C0060AD52046FFF782FE06E0D4E98C
:1008B000012130209047206A401C2062381EA7F199
:1008C0000107F4DC07E0D4E9012118F8050090479E
:1008D000206A401C2062281EA5F10105F3DC204699
:1008E000FFF77CFE2078000602D50220BDE8F087E5
:1008F0000120FBE770472DE9FF4F0C461E464FF0E5
:10090000FF378BB0D2E90001DDF860800A908A469B
:10091000C1F30A5505B93D46002108464FF00000D5
:10092000BAF1000F00F4400005DA00EB80004FF44C
:10093000400101EA50004FEA9059B9F1010F00DD82
:10094000B9460A9850EA4A000ED044F61050A5F273
:10095000FF3545432F14B8F1000F1ED07542291EF4
:100960001EDDC9F100021CE0B8F1010F4FF00000DC
:1009700001D0302103E0F24305E02154401CB04295
:10098000FBDB30460022002121540B99C1F808807E
:10099000C1E900200FB0BDE8F08FBD1B6D1CDEE784
:1009A0004A4600DA694206A800F064FA06AB93E80A
:1009B000070003AB83E8070050460A9900F036FBB6
:1009C0008DE80700A0F500501F3800900398002D17
:1009D0000ADD42F21F014A460844002303A903909E
:1009E000684600F09FFD09E0A0F500504A461F3818
:1009F000002303A90390684600F0A9FD8DE80700D5
:100A00000004000C03D04FF0FF30410800E0104616
:100A1000B8F1000F03D00022009215461EE0751EAB
:100A200005D400F0A1F9303262556D1EF9D5B346F8
:100A30000122084302D000227F1C04E020783028E5
:100A400001D100227F1E002A099784D01DE0112DBC
:100A500007DA00F089F9303262556D1C50EA010264
:100A6000F5D1084302D00098C8B10EE00021681EFD
:100A700005E0235C625C63542254401E491C8142A1
:100A8000F7DBAB46A81B401E0990002004F80B00C2
:100A90000B98099AC0F80880C0E9002B7AE7112664
:100AA0004FF0000857E72DE9F04F88460446D21D65
:100AB00022F0070191B0D1E90001CDE90A010DF062
:100AC00090FC02460B98C00F01D02D2007E0206853
:100AD000810701D52B2002E0202101EAC000032A72
:100AE000099001D0072A05DB03464146204600F065
:100AF00081F90BE12078800601D5E06900E006204D
:100B0000B8F1650F814606D0B8F1660F18D0B8F17C
:100B1000670F70D131E00020B9F1110F009001DBB7
:100B2000112301E009F101030AAA01A90CA8FFF7AA
:100B3000E2FEDDE90C70002609F10105834647E07D
:100B400001204B4600904FF000470AAA01A90CA8CB
:100B5000FFF7D1FEDDE90DB00C995D46002610B916
:100B600009F101000D18B9EB050003D4C0F1FF36FF
:100B700009F10105A5EB09002BE0B9F1010F01DA3C
:100B80004FF001090020B9F1110F0090484601DD36
:100B9000112300E003460AAA01A90CA8FFF7ABFE47
:100BA000DDE90C704D4600268346207800070AD404
:100BB000AB4500DA5D4601A8012D04DD411911F8AD
:100BC000011C302907D04F4502DA17F1040F04DA6F
:100BD000012082460FE06D1EEEE7002F02DCED1BC8
:100BE0003E4403E0781CA84200DD7D1CB81B00F1E8
:100BF000010A4FF000472078000703D4AA4501DB23
:100C00004FF0FF3A0021B7F1004F0DF143088DF886
:100C1000431024D002202B23002F01DA7F422D2302
:100C20000A21021EA0F1010000DC5FB197FBF1FC7C
:100C300097FBF1F201FB1C7C17460CF1300C08F815
:100C400001CDEEE7A8F1010003702188090501D567
:100C5000452100E06521A0F1010800F8011C099878
:100C60000FA9A1EB0807FF1D00B10120411901EBFD
:100C7000EA70A1693844081A401EA0612078C006B5
:100C800002D42046FFF794FC099828B1D4E9012149
:100C90009047206A401C20622078C00622D520465A
:100CA000FFF786FC1EE0002E04DBB34502DD01A841
:100CB000805D00E03020D4E901219047206A401C8B
:100CC0002062761CAAF101005FEA000A0AD100F056
:100CD00043F8C0680168405CD4E901219047206A6C
:100CE000401C2062281EA5F10105DCDC07E0D4E9E8
:100CF000012118F8010B9047206A401C2062381E21
:100D0000A7F10107F3DC2046FFF768FC032011B0D0
:100D100041E6000001694A1C02610878704700B58D
:100D20008FB0CDE901310021059105497944CDE924
:100D3000031011466846FFF79FFC0FB000BD00008E
:100D4000E5FFFFFF0A6802F8010B0A607047000028
:100D500000487047586A002400487047786A0024A9
:100D600000487047586A002430B5B0F10A024FEAD3
:100D7000900E71F100034EEA817EB0EB0E0061EB44
:100D800091014FEA101E4EEA017E10EB0E0041EB7E
:100D900011114FEA102E4EEA016E10EB0E0041EBDE
:100DA00011214FEA104E4EEA014E10EB0E0041EBBE
:100DB0001141401841F100014FEAD00040EA417072
:100DC0004FEAD10110EB80054FEA810444EA9074A8
:100DD00044EB01046D1944EB0404521BA3414FF092
:100DE000000348BF0A3200D530BD401C41F100016C
:100DF00030BD00002DE9F0411F460446032601687E
:100E0000072A01F4006004DB08B116A505E016A569
:100E100003E008B115A500E015A521F01000206041
:100E2000A069C01EA0610FB1401EA0612046FFF75F
:100E3000BFFB4FB1D4E9012138469047206A401CDE
:100E40002062C01C206206E0206AFAE7D4E9012192
:100E500015F8010B9047761EF8D22046FFF7BEFB2F
:100E6000BDE8F0814E414E006E616E00494E460075
:100E7000696E66002DE9F047814616468AB035480E
:100E800078440DC88DE80D0032487844801C03ACCE
:100E90000DC884E80D0041F69B300844372190FBD3
:100EA000F1F290FBF1F5A5F1800501FB12041B3C6A
:100EB00002D56442012000E00020DFF898A08046BF
:100EC0000027FA44AAF1BE0A0EE0E0070AD0324633
:100ED000684607EB470101230AEB810100F037FB6D
:100EE0008DE8070064107F1C002CEED1194F7F4461
:100EF000AE3F19E0E80715D007EB04100DF1180A12
:100F000090E80E008AE80E00C068F04201D19819FE
:100F100008903246012306A903A800F018FB03AB92
:100F200083E807006D10641C002DE3D14FF001032E
:100F300032466946B8F1000F03A802D000F0F2FA79
:100F400001E000F004FBC9E90001C9F808200AB07B
:100F5000BDE8F0877025010070477546FFF7F8FE81
:100F6000AE4605006946534620F00700854618B096
:100F700020B5FFF77FFABDE820404FF000064FF0A4
:100F800000074FF000084FF0000B21F00701AC46BE
:100F9000ACE8C009ACE8C009ACE8C009ACE8C009DD
:100FA0008D46704710B50446AFF300802046BDE87B
:100FB0001040FFF7EAB900004FF0013C50F8042B55
:100FC00051F8043B9A4215D1A2EB0C03934313EA68
:100FD000CC130BD150F8042B51F8043B9A4209D1A1
:100FE000A2EB0C03934313EACC13E7D04FF00000BD
:100FF000704700BFD01A01BAB1FA81F101F01801AF
:1010000022FA01F0CB40C1F12001DBB2C0B2C01A1C
:101010002CFA01F3D11A914311EAC311E6D17047BA
:1010200001491820ABBEFEE7260002005FEA400C33
:1010300008BF91F0000F4FEA8C234FEAC12243EA28
:1010400051514FEA1C5018BF00F5F0404FEA3000F4
:1010500018BF41F000415FEA6C5C00F02980BCF1F0
:10106000FF3F08BF40F080407047130C06BF1204DA
:101070004FF0100C4FF0000C130E04BF12020CF1D5
:10108000080C130F04BF12010CF1040C930F04BFE2
:1010900092000CF1020CD30F04BF52000CF1010CB2
:1010A00011464FF00002A0F11F00A0EB0C007047AA
:1010B00011F0004F08BF704731F000413FF4D5AF49
:1010C0000B0C06BF09044FF0100C4FF0000C0B0E78
:1010D00004BF09020CF1080C0B0F04BF09010CF14D
:1010E000040C8B0F04BF89000CF1020CCB0F04BF62
:1010F00049000CF1010CCCF12003A0EB0C0022FA0A
:1011000003F302FA0CF241EA030100F10100704717
:1011100020F07F4C80EA030023F07F47ACEB07030D
:1011200003F57C5300F0004003F1FF032DE98049F3
:101130004FEA154B09B44FEA144325EA0B4E24EA53
:1011400003480FF2042606EB132749083E785FEAAE
:10115000320203FB0667C7F5000707FB06F64FEAF6
:1011600054374FEAD64606F1020607FB066CCCF16F
:10117000005C4FEA1C472CEA074C07FB06F40CFB0B
:1011800006F504EB15464FEA961634BF00204FF0E3
:1011900000404FEAD13706FB07FC4FEA1C4C0CFB22
:1011A0000BF7D21B03FB0CF761EB07010CFB0EF7EF
:1011B000B0EB074072EB17420CFB08F734BFA2EB11
:1011C0000742B2EB074261EB17414FEA0C444FEA8A
:1011D000910706FB07FC4FEA1C4C0CFB0BF7B0EB2E
:1011E000C74072EB573203FB0CF734BFA2EBC74288
:1011F000B2EBC74261EB57310CFB0EF7B0EBC70007
:1012000072EB57720CFB08F734BFA2EBC702B2EBCC
:10121000C70261EB5771039F4FEA816141EA921166
:1012200004EBCC044FEAD1374FEA826206FB07FC9D
:1012300042EA90124FEA80604FEA1C4C0CFB0BF71D
:10124000D21B03FB0CF761EB07010CFB0EF7B0EBB5
:10125000074072EB17420CFB08F734BFA2EB0742C2
:10126000B2EB074261EB17414FEA8C554FEA910709
:1012700004EB9C2406FB07FC4FEA1C4C0CFB0BF711
:10128000B0EBC74072EB573203FB0CF734BFA2EB55
:10129000C742B2EBC74261EB57310CFB0EF7B0EB24
:1012A000C70072EB57720CFB08F734BFA2EBC70202
:1012B000B2EBC70261EB577115EB4C254FEA816128
:1012C00041EA92114FEA82624FEAD13742EA901224
:1012D00006FB07FC44F100044FEA80604FEA1C4C17
:1012E0000CFB0BF7D21B03FB0CF761EB07010CFBAC
:1012F0000EF7B0EB074072EB17420CFB08F734BF58
:10130000A2EB0742B2EB074261EB174115EB1C154C
:101310004FEA813141EA92414FEA823242EA9042F9
:101320004FEA80304FEA0C7644F1000448EA034368
:101330004EEA0B484FF0000EB2EB080C71EB0307BE
:1013400024BF624639464EEB0E0E4FF0000B0018DC
:10135000524149414BEB0B0BB2EB080C71EB03070D
:101360007BF1000B24BF624639464EEB0E0E4FF068
:10137000000B0018524149414BEB0B0BB2EB080C30
:1013800071EB03077BF1000B24BF624639464EEB3D
:101390000E0E51EA020718BF46F0010616EB0E7654
:1013A00055F1000254F1000103D5BDE88901BDE803
:1013B0000088BDE88901BDE80048B619524141EBFB
:1013C0000101A3F10103704780807F7E7D7C7B7AE1
:1013D0007978777676757473727171706F6E6E6DE1
:1013E0006C6C6B6A6A696868676666656464636387
:1013F00062616160605F5F5E5E5D5D5C5C5B5B5A0D
:101400005A59595858575756565555555454535379
:1014100052525251515050504F4F4F4E4E4D4D4DD4
:101420004C4C4C4B4B4B4A4A4A494949484848471F
:10143000474747464646454545444444444343435D
:101440004342424242414141002B9C4630D4770006
:101450002BD01CB54FEA370703B44FF010004FF004
:101460001001BAF1000F06D0BCF1000FDCBF40F054
:10147000080040F008014FF000000FBCBDE810402C
:101480000BF1010BBBF1010F08BF5FEA170722BF89
:1014900012F1010211F101014FF0004143F100038B
:1014A00000F0004043EA00007047F9D35708D0E746
:1014B00046EA064613F1400F4FEA16461FDD13F1C8
:1014C000200FDFBF16430A46002120335B42BED007
:1014D000C3F1200746EA064602FA07F74FEA164626
:1014E00046EA0706C3F1200722FA03F201FA07F7DA
:1014F00021FA03F14FF0000342EA0702A7E746EAA8
:10150000020646EA06464FEA164646EA0106BCBF10
:1015100046EA0646360C4FF000034FF000024FF04B
:10152000000194E72DE9804C9A46934670B491E807
:10153000380007C831EA400C48BF34EA430C03D5F1
:10154000FFF7E6FDFFF780FFF0BCBDE8008C2DE95A
:10155000804C9A46934670B491E8380007C810F062
:10156000804F08BF13F0804F03D100F005F8FFF75C
:101570006BFFF0BCBDE8008C20F07F4780EA0300E1
:1015800023F07F4C07EB0C03A3F57C5300F00040E5
:10159000A3F1FE0392F0000F00F0B38095F0000F6E
:1015A00000F077802DE901494FEA11404FEA1446D7
:1015B00021EA004800FB06FC24EA064708FB06F681
:1015C00007FB08F800FB07F718EB06484CEB164C36
:1015D0004FEA124B18EB07484FEA15464CEB174001
:1015E00022EA0B4E0BFB06FC25EA06470EFB06F62D
:1015F00007FB0EFE0BFB07F71EEB064E4CEB164CE3
:101600004FF000061EEB074E4CEB174B18EB0B0888
:1016100040F1000018EB0E0B58EB000840F1000001
:101620008F1A4FF000013CBFC943661B14BFB5EBD6
:10163000040C00213CBFC943F61B4FEA17444EEA95
:101640008E0E27EA04454FEA1C4704FB07622CEA8A
:10165000074C05FB07F70CFB05F604FB0CFC16EB2F
:10166000074642EB174216EB0C4642EB1C421BEBC3
:10167000060658EB0202414146EA9E0601D5BDE846
:101680000189B619524141EB0101A3F10103BDE803
:1016900001894FEA14454FEA114724EA054621EA39
:1016A000074C05FB07F406FB07F70CFB06F105FBEF
:1016B0000CFC11EB074144EB17444FEA124711EBC6
:1016C0000C4144EB1C4422EA074C05FB07F206FBE5
:1016D00007F70CFB06F605FB0CFC16EB074642EB86
:1016E000174216EB0C4642EB1C456A1854F10001F8
:1016F00048BF7047B619524141EB0101A3F1010304
:10170000704795F0000F37D04FEA11424FEA144767
:1017100021EA024624EA074C02FB07F106FB07F721
:101720000CFB06F402FB0CFC14EB074441EB1741E5
:101730004FEA154714EB0C4441EB1C4125EA074CDA
:1017400002FB07F506FB07F70CFB06F602FB0CFC99
:1017500016EB074645EB174516EB0C4645EB1C42CE
:10176000121951F1000148BF7047B619524141EBBF
:101770000101A3F1010370474FEA14454FEA1147F5
:1017800024EA054621EA074C05FB07F106FB07F7AB
:101790000CFB06F24FF0000605FB0CFC12EB0742B7
:1017A00041EB174112EB0C4251EB1C4148BF704713
:1017B000921841EB0101A3F10103704770B53B4959
:1017C0000546006888421CBF394A904205D1D1F8CD
:1017D000080310F4403F06D115E03648D0F808035E
:1017E00010F4403F0FD006F05BF904466868B0F58E
:1017F000803F14BFB0F5003F000C1BD0B0F5403F58
:1018000008BFA40822E04FF4002005F0EFF80446DA
:1018100068688103890B19D180140C2816D2DFE87F
:1018200000F0150606060606060C0E10121468686F
:10183000800C4000B4FBF0F408E0240906E06409E1
:1018400004E0A40902E0E40900E0240A03F076FBC6
:1018500041F20301884208D81748A04228688168ED
:1018600028BF21F4807112D20FE014496008884229
:1018700004D82868816821F4407108E01049884242
:1018800007D82868816821F4407141F48071816033
:1018900070BD0C498842286881689ABF21F4407164
:1018A00041F4007141F44071F1E700000020024072
:1018B0000021024000600258002D3101105E5F00DF
:1018C00020BCBE0040787D0170B504460068816888
:1018D000826812F0010FC1F3400132D089BB8168E8
:1018E00001F00D0101291DD1816821F03F0121F096
:1018F000004141F00201816021680320086003F08B
:1019000023FB05462068806810F0010F19D000BF46
:1019100003F01AFB401B02280ED92068806810F0E3
:10192000010F09D0606D40F010006065A06D40F0BF
:101930000100A065012070BD2068806810F0010FD3
:10194000E6D1002070BD000070B5044600688168D3
:1019500011F0010F42D181686FF39E1100293FD130
:10196000816821F03F0121F0004141F001018160D7
:1019700003F0EAFADFF87CC0054620681E4A60459D
:101980001ABF90421D491E498968904201F01F0309
:101990000CBF61460146814212BF002B006810F067
:1019A000010F1BD12068816811F0010F07D18168F8
:1019B00021F03F0121F0004141F00101816003F07D
:1019C000C3FA401B022804D92068006810F0010FF8
:1019D00006D02068006810F0010FE3D0002070BD31
:1019E000606D40F010006065A06D40F00100A065E2
:1019F000012070BD00200240002102400063025817
:101A000000230240FEE700207047002070470000DE
:101A1000044810B50AF048FF002818BF4FF0FF3007
:101A200010BD000028230024014802F055BA000030
:101A3000D0080024014802F04FBA0000E009002459
:101A4000014802F049BA0000580A0024014802F097
:101A500043BA0000D00A0024014802F03DBA000059
:101A6000480B0024014802F037BA0000C00B0024E4
:101A7000014802F031BA0000380C0024014802F09D
:101A80002BBA0000B00C0024014802F025BA000077
:101A9000280D0024244A016891421CBF234A914228
:101AA0002CD0234A91421CBF224A914226D0224A7E
:101AB00091421CBF214A914220D0214A91421CBF31
:101AC000204A91421AD0204A91421CBF1F4A91429B
:101AD00014D01F4A91421CBF1E4A91420ED01E4A8A
:101AE00091421CBF1D4A914208D01D4A91421FBF1E
:101AF0001C4A914221F0FF01816512D11A4ACBB2F2
:101B0000A3F110036FF30901A2FB03324FEA121293
:101B1000032A02F00703154AD25CC26588BF091D7B
:101B2000816508467047000010000240280002400E
:101B3000400002405800024070000240880002400D
:101B4000A0000240B80002401004024028040240F5
:101B500040040240580402407004024088040240DD
:101B6000A0040240B8040240ABAAAAAAB8300108F7
:101B70000E490F480A6822F080720A600B68002242
:101B800043F080730B60016821F00101016001687E
:101B900041F001010160426000BF00BF00BF40682A
:101BA000002814BF0020012070470000FCED00E079
:101BB000001000E0704700002DE9F04F9FED2A0B68
:101BC0001C4693460E4605462DED028B83B00CF065
:101BD000D7FEB0EE408BB0EE000B0CF0D1FE88EEDD
:101BE000001BA0194FF00008474605EB9011481B59
:101BF000401C1FFA80F9B9F1000FBDEEC10B10EEC9
:101C000010AADEBF03B0BDEC028BBDE8F08F00BFB1
:101C100005FA0AF0304382B22046A119402924BFB8
:101C2000C6F1400080B20BEB080306464FF47A7110
:101C30000291CDE900300E480223A02103F026FBDB
:101C4000A01B08EB0602691C00267F1C8DB284B223
:101C50001FFA82F84F45DBDB03B0BDEC028BBDE819
:101C6000F08F000000000000000000000000504065
:101C70007C030024012003F027B8022003F024B8DD
:101C8000042003F021B8082003F01EB8102003F050
:101C90001BB8202010B503F017F8402003F014F80B
:101CA000BDE810404FF4007003F00EB872B6FEE7C6
:101CB0002DE9F041184F0026194D34462DED048BC7
:101CC0009FED169A9FED188B04EB4400B0EE491A75
:101CD000F7EE000AB7EE000A07EBC00007F0B9FF05
:101CE00005EB8402601C05EBC40105EB4403C2F85C
:101CF000506CC4B201F54060A3F8706C082C80ED04
:101D0000208B80ED308BDFD3A5F8006DBDEC048B0C
:101D1000BDE8F08100000000F40F002417B7D138AF
:101D2000D0100024000000000000000000000000AF
:101D300070B5104D0024104E05EB440004EB440137
:101D4000B0F8700C00EE100A06EBC100B8EE400AC5
:101D500010F086F8BCEEC00A05EBC400611C00F56B
:101D60004060B8EE400BCCB2082C80ED300BE3D3D2
:101D700070BD0000D0100024F40F002410B50446FC
:101D800090F8290000281EBF002084F8290010BD0B
:101D900010F05EFD216A401AB0F5FA7F38BF10BD21
:101DA0002079002808BF78200BD0012808BF7920AF
:101DB00007D0022808BF7A2003D0032808BF62207A
:101DC00000D16071642320680122611D07F0FCFAD4
:101DD00064200FF033FB206804F10D01BDE81040D2
:101DE000012207F00CBA70B50D46106002F10D012A
:101DF0001446084615710CF0EBFA002084F829000F
:101E00002062612684F82B00642384F82C000122D0
:101E100084F82D00611D84F82E0084F82F0084F8CA
:101E20003000E087A4F84000A4F8420020876087D3
:101E3000A087A084E0846671206807F0C5FA64205A
:101E400002F08CFE6671642320680122611D07F098
:101E5000BBFA642002F082FE002D08BF78200BD070
:101E6000012D08BF792007D0022D08BF7A2003D0AA
:101E7000032D08BF622000D1607164232068012215
:101E8000611D07F0A1FA642002F068FE206804F1E9
:101E90000D01BDE87040012207F0B1B92DE9F04114
:101EA000002504460079012648B1012842D00228C5
:101EB0007ED0032804BF204600F0CAF8B9E0607B5A
:101EC000607778287DD094F82A0001286DD194F8A5
:101ED00028105C4894F80DC04A1C84F8282000F8AB
:101EE00001C094F8281003295FD390F800C040F295
:101EF0007122A18C64234778494280781CFB02F24E
:101F000017FB03F301EB810100EB021003EB41012E
:101F10000844A0F5F420A0F5907000B2208707F0E7
:101F200007FEE08784F8296010F092FC206284F8B4
:101F30002A507EE0607B6077792842D094F82A00AE
:101F4000012876D194F828103F4894F80DC04A1C17
:101F500084F8282000F801C094F82810032968D3D9
:101F600090F800C040F27122A18C64234778494266
:101F700080781CFB02F217FB03F301EB810100EBFD
:101F8000021003EB41010844A0F5F420A0F5907085
:101F900000B2608707F0CCFDA4F8400084F8296007
:101FA00010F056FC206284F82A5042E000E008E07D
:101FB000607B60777A2804D094F82A00012805D045
:101FC00037E084F82A6084F8285032E094F828102A
:101FD0001E4894F80DC04A1C84F8282000F801C05F
:101FE00094F82810032924D390F800C040F27122FD
:101FF000A18C64234778494280781CFB02F217FBCE
:1020000003F301EB810100EB021003EB41010844F3
:10201000A0F5F420A0F5907000B2A08707F088FD2D
:10202000A4F8420084F8296010F012FC206284F8C1
:102030002A5004F10D0120680122BDE8F04107F0AB
:10204000DEB80000670000246A0000246D00002450
:1020500070B50446827F437F0125417B462AA377E2
:102060003848E277617702BF452B8C46452904D07A
:1020700094F82A20012A0AD05BE002704FF0030C8A
:102080004370817084F82A5084F828C051E094F895
:102090002820531C84F82830815494F828101729DC
:1020A00047D3C17884F82B10017984F82C1041793A
:1020B00084F82D10817984F82E10C17984F82F10BE
:1020C000017A84F83010B0F8091049BA6186B0F886
:1020D0000B1049BAA186B0F80D1049BAE186B0F8E4
:1020E0000F1049BA09B22187B0F8112052BA62879D
:1020F000B0F8132052BAA287B0F8150040BAA4F87D
:102100004400084607F014FDE087B4F93A0007F0F0
:102110000FFDA4F84000B4F93C0007F009FDA4F855
:10212000420084F8295010F093FB2062002184F8CB
:102130002A1004F10D0120680122BDE8704007F06B
:102140005EB80000B821002409480021A0F8401D15
:10215000A0F8421DA0F8441DA0F8461DA0F8481D97
:10216000A0F84A1DA0F84C1DA0F84E1D70470000B5
:10217000D010002470B5B14D4FF40041284602F054
:10218000CBFE00280CBF01200020AD4C4FF4804155
:1021900084F8080D284602F0BFFE00280CBF01207D
:1021A000002084F8090D4FF40051284602F0B4FED7
:1021B00000280CBF0120002084F80A0DA14D402109
:1021C000284602F0A9FE00280CBF0120002084F858
:1021D0000B0D2021284602F09FFE00280CBF012095
:1021E000002084F80C0D1021284602F095FE0028EE
:1021F0000CBF0120002084F80D0D0821284602F0B4
:102200008BFE00280CBF0120002084F80E0D042155
:10221000284602F081FE00280CBF0120002084F82F
:102220000F0D894E4FF48061304602F075FE002894
:102230000CBF0120002084F8100D4FF40041284607
:1022400002F06AFE00280CBF0120002084F8110D66
:102250004FF48041284602F05FFE00280CBF0120A9
:10226000002084F8120D4FF40051284602F054FE6D
:1022700000280CBF0120002084F8130D4FF480517A
:10228000284602F049FE00280CBF0120002084F8F7
:10229000140D4FF40061284602F03EFE00280CBFEA
:1022A0000120002084F8150D4FF48061284602F0CB
:1022B00033FE00280CBF0120002084F8160D4FF4D7
:1022C0000071284602F028FE00280CBF01200020E3
:1022D00084F8170D5D48042102F01EFE00280CBF93
:1022E0000120002084F8180D4FF400413546304697
:1022F00002F012FE00280CBF0120002084F8190D06
:102300004FF48041284602F007FE00280CBF012050
:10231000002084F81A0D4FF40051284602F0FCFD0D
:1023200000280CBF0120002084F81B0D4FF48051C1
:10233000284602F0F1FD00280CBF0120002084F89F
:102340001C0D4FF40061284602F0E6FD00280CBF8A
:102350000120002084F81D0D3D48102102F0DCFD15
:1023600000280CBF0121002184F81F1D94F80A3DAC
:1023700094F8092D94F80BCD94F8080D9D0094F86D
:102380000C3D00EB420094F80D2D05EBCC0C844481
:1023900094F80E0D0CEB031394F80FCD03EB4212DF
:1023A00002EB801000EBCC1084F8390D94F8122D5C
:1023B00094F8113D94F813CD94F8100D950094F80D
:1023C000142D00EB430394F8150D05EBCC0C9C4445
:1023D00094F8163D0CEB021294F817CD02EB401066
:1023E00000EB831000EBCC1084F83A0D94F81ACD72
:1023F00094F8193D94F81B5D94F8182D4FEA8C0C55
:1024000094F81C0D02EB430294F81D3D0CEBC50C37
:10241000624494F81ECD02EB001000EB431202EB75
:102420008C1202EBC11184F83B1D002084F83C0D96
:1024300084F83D0D84F83E0D70BD00000008025880
:10244000D010002400100258000C0258000402585A
:10245000000002583948002180F8081D80F8091D45
:1024600080F80A1D80F80B1D80F80C1D80F80D1DEA
:1024700080F80E1D80F80F1D80F8101D80F8111DCA
:1024800080F8121D80F8131D80F8141D80F8151DAA
:1024900080F8161D80F8171D80F8181D80F8191D8A
:1024A00080F81A1D80F81B1D80F81C1D80F81D1D6A
:1024B00080F81E1D80F81F1D80F8201D80F8211D4A
:1024C00080F8221D80F8231D80F8241D80F8251D2A
:1024D00080F8261D80F8271D80F8281D80F8291D0A
:1024E00080F82A1D80F82B1D80F82C1D80F82D1DEA
:1024F00080F82E1D80F82F1D80F8301D80F8311DCA
:1025000080F8321D80F8331D80F8341D80F8351DA9
:1025100080F8361D80F8371D80F8381D80F8391D89
:1025200080F83A1D80F83B1D80F83C1D80F83D1D69
:1025300080F83E1DA0F84C1D70470000D01000240C
:102540002DE9F04782B00DF0CFFD322002F006FBFE
:102550000DF0CAFD322002F001FB0C268DF804605C
:1025600008278DF805704FF01C098DF806904A4831
:10257000322504234FF0F0084E214FF0180A01AA2B
:102580008DF807A0009502F0A1FD0A2002F0E6FAFE
:10259000322002F0E3FA8C208DF8040088218DF8B7
:1025A00005108DF8066004233B484E2101AA8DF8E2
:1025B0000770009502F08AFD38A400BF14F8011BD3
:1025C000009508EA011001F0F00141F00D028DF8CC
:1025D000042041F009018DF8051040F00D038DF83D
:1025E000063040F009008DF807002B4804234E21E7
:1025F00001AA02F06BFD20780028DFD1322002F022
:10260000ADFACC218DF80410C8208DF805008DF8A6
:102610000660042320484E2101AA8DF8077000951A
:1026200002F054FD21A400BF14F8011B009508EA34
:10263000011001F0F00141F00D028DF8042041F08D
:1026400009018DF8051040F00D038DF8063040F0BB
:1026500009008DF80700104804234E2101AA02F05A
:1026600035FD20780028DFD1322002F077FA8DF88E
:10267000046004238DF805704E218DF8069001AAA0
:1026800005488DF807A0009502F020FD02B00A2051
:10269000BDE8F04702F062BA7C03002446454520BD
:1026A00053544D3332483756425436004D41494E0B
:1026B00020526F626F74205632000000DFF854C061
:1026C00070B40CF108030826002103F10A0503F198
:1026D0001204A3F16E02012802D0022808D00DE0F6
:1026E0008CF80010197082F8761082F8771005E0E7
:1026F0002970217082F8881082F889105B1C641C94
:102700006D1C761E0CF1010CE5D1034908204860D0
:1027100070BC7047362100241401002470B50E4CA3
:1027200001284FF0080509D002281CBF0020606076
:102730000BD0401C0828FCDB606070BD074901F627
:10274000EE300BF049FE656070BD054901F6E220F0
:102750000BF042FE656070BD140100244815002492
:1027600066160024DFF854C0012810B50DD00228E9
:1027700018BF10BD8CF8D615142311480122BDE8EE
:1027800010400CF2D65106F01FBE0E4C2078884245
:102790001CBF2820607021706078012898BF10BD90
:1027A0008CF8B8141423084801220CF5976106F040
:1027B0000BFE6078401E607010BD0000D010002439
:1027C0004008002414010024E00400242DE9F04115
:1027D000244E254F254D96F8F10D00B3387800288A
:1027E00008BF002416D101222846D10302F0A1FB24
:1027F000C8200EF023FE002228464FF4004102F0CC
:1028000098FBC8200EF01AFE601CC4B2022CEAD35A
:1028100001203870002086F8F10DBDE8F08110F03D
:1028200017F8D6F8F41D401AB0F57A7F38BFBDE826
:10283000F081012206F55E61786806F0E0FC012275
:102840002846D10302F075FBC8200EF0F7FD0022E8
:1028500028464FF4004102F06CFBBDE8F041C8206F
:102860000EF0ECBDD01000245800002400000258E7
:1028700014490023DFF850C0FF2248606146CCF8BD
:10288000E03DCCF8E43DCCF8E83DCCF8EC3DCCF8AC
:10289000F03DCCF8F43DCCF8F83DCCF8FC3DCCF85C
:1028A000003E81F8002E81F8FC2D81F8FD2D81F885
:1028B000FE2D81F8FA2D81F8FB2D012201F55E61D4
:1028C00006F09DBC58000024D010002410B5FFF77E
:1028D00037FE1148002180F8DD10A0F8DE1080F8E6
:1028E000E01080F8E11080F8E21080F8E310A0F822
:1028F000E410A0F8E610FFF7DBF900F09DF9FFF710
:1029000023FCFFF7A7FD00F01FF800F09DF8BDE8DD
:102910001040642002F022B9D02000240649012092
:1029200010B5064A087102210548FFF75CFABDE8B8
:1029300010400448FFF79CBF1C01002460220024C3
:10294000B007002420070024704700002DE9F04163
:102950000D4C1423012004F1800104F64C6691E82B
:10296000A61086E8A61009490B600821A4F80E0FEE
:10297000074802F0D6FA04F180010648BDE8F041AC
:10298000142206F03CBC0000D010002410010024EA
:102990000004025890060024F0B42A4E00251E20A0
:1029A00006F5805C232101248CF8B3500F228CF8AB
:1029B0008A5023468CF8B450CCF88B50CCF88F500A
:1029C000CCF89350CCF89750CCF89B50CCF89F5053
:1029D000CCF8A350CCF8A750CCF8AB50CCF8AF5003
:1029E0008CF8DB008CF8DC108CF8B5508CF8B62035
:1029F0008CF8B7508CF8B8508CF8BB50C3EBC300C0
:102A000001213044032200F5865000BF11F0010F70
:102A10000CBF44704570491C11F0010F0CBF84704D
:102A20008570801C491C521EF0D15B1C022BE5DD19
:102A30008CF8BC508CF8BF408CF8BD508CF8BE5060
:102A4000F0BC7047D0100024DFF8E4C10020794AC0
:102A500003464DF8044DCCF80000D118D0545B1C4F
:102A600081F81E01402B81F83C0281F85A0381F85D
:102A7000780481F8960581F8B40681F8D20781F8C8
:102A8000F00881F80E0A81F82C0B81F8400081F8DB
:102A90005E0181F87C0281F89A0381F8B80481F81C
:102AA000D60581F8F40681F8120881F8300981F81A
:102AB0004E0A81F86C0B81F8800081F89E0181F844
:102AC000BC0281F8DA0381F8F80481F8160681F86F
:102AD000340781F8520881F8700981F88E0A81F86C
:102AE000AC0BBADB0446CCF800001119641C042CB2
:102AF00081F8000181F8040181F81E0281F82202A8
:102B000081F83C0381F8400381F85A0481F85E049F
:102B100081F8780581F87C0581F8960681F89A0697
:102B200081F8B40781F8B80781F8D20881F8D6088F
:102B300081F8F00981F8F40981F80E0B81F8120B85
:102B400081F82C0C81F8300CCFDBCCF80040A2F8D7
:102B50000801A2F82602A2F84403A2F86204A2F82F
:102B60008005A2F89E06A2F8BC07A2F8DA08A2F82F
:102B7000F809A2F8160BA2F8340CA2F80A01A2F880
:102B80002802A2F84603A2F86404A2F88205A2F87B
:102B9000A006A2F8BE07A2F8DC08A2F8FA09A2F87B
:102BA000180BA2F8360CA2F81201A2F83002A2F813
:102BB0004E03A2F86C04A2F88A05A2F8A806A2F8AF
:102BC000C607A2F8E408A2F8020AA2F8200BA2F8AD
:102BD0003E0C82F8140182F8320282F8500382F827
:102BE0006E0482F88C0582F8AA0682F8C80782F87B
:102BF000E60882F8040A82F8220B82F8400CA2F858
:102C00001601A2F83402A2F85203A2F87004A2F846
:102C10008E05A2F8AC06A2F8CA07A2F8E808A2F846
:102C2000060AA2F8240BA2F8420C5DF8044B704788
:102C300054000024D01000243248002130B4034650
:102C40004FF0410C03F540624025C3F8501D4E245F
:102C5000C3F8541DC3F8581DC3F85C1DC3F8601DAC
:102C6000C3F8641DC3F8681DC3F86C1DC3F8701D5C
:102C7000C3F8741DC3F8781DC3F87C1DC3F8801D0C
:102C8000C3F8841DC3F8881DC3F88C1DC2F89011C9
:102C9000C2F89411C2F89811C2F89C11C2F8A011A0
:102CA000C2F8A411C2F8A811C2F8AC11C2F8B01150
:102CB000C2F8B411C2F8B811C2F8BC11C2F8C01100
:102CC000C2F8C411C2F8C811C2F8CC110E4A15607E
:102CD00080F8904D80F891CD80F8D01D80F8D11DFE
:102CE00080F8D21D80F8D31D80F8D41D80F8D51D42
:102CF00080F8D61DA0F8D81DA0F8DA1D80F8DC1DDC
:102D000030BC7047D010002450000024F8B50025D6
:102D1000044616460F46009590F85000012804BF5F
:102D20000220F8BD012084F850002046FEF7CCFDBB
:102D30000200606D18BF40F010002DD120F48850C3
:102D400040F002006065206807F4803106F0804C96
:102D5000144B41EA0C01D0F808C00CEA03031943F4
:102D600041F000418160104B20688168C90F0ED08E
:102D70000099491C00918B42F7D8606D84F850503F
:102D800020F0020040F0100060650120F8BD606D89
:102D900020F0020040F001006065104684F85050B9
:102DA000F8BD0000C0FFFE3F00F8C3252DE9F0018B
:102DB00090F85020002599B0012A01BF022019B0D7
:102DC000BDE8F00170474FF0000C012280F8502060
:102DD000CDF854C0344BCDF858C002689A4218D18F
:102DE000324C0094A668926812F0040FC6F3800279
:102DF00008BF002A19D0416D4FF0010541F02001B4
:102E0000C0F8541080F850C019B02846BDE8F00151
:102E10007047416D80F850C041F02001416519B004
:102E20004FF00100BDE8F0017047214A214E0F68C4
:102E30000FB3D2F808804F6828F4404848EA0707E3
:102E4000976007689F4211BFA7429C68D3F808317A
:102E5000234318BFB36813F0010FD3D10B688968FF
:102E6000946843EA010124F01F0323F4706341EAEC
:102E700003019160C6E7916821F4404191600168C7
:102E8000994219BFA142B1689968D3F8083108BFC7
:102E9000194311F0010F02BF916821F01F0121F4C5
:102EA0007061AFD1E5E70000002002400021024040
:102EB00000230240006002582DE9F00F84B0002585
:102EC000AC46019590F85020012A01BF022004B0C1
:102ED000BDE8F00F7047012380F850300268946815
:102EE00014F0040F0DD0416D4FF0010C41F02001A2
:102EF000C0F8541080F8505004B06046BDE8F00FA0
:102F000070470C68D66927033F0B1ABF94FAA4F4E4
:102F1000B4FA84F4C4F3846404F01F0403FA04F4E0
:102F20003443D461D1E900720C2406684FF01F08C5
:102F300004EA921902F01F0409EB0602C7F3846643
:102F400008FA04F706FA04F4166BBE43344314631C
:102F50000268042407269768D2F80890C7F380080F
:102F6000C9F3C00758EA070762D10F68D1F8088093
:102F700004EAD759C7F304574A4406FA07F908FA8E
:102F800007F7D2F8148028EA090848EA07075761CA
:102F9000E54A126802F07042B2F1805F026848D0E0
:102FA000D768D26817F0100F4F6907BFC2F38202CB
:102FB000520002F01002520807FA02F20F69042FC1
:102FC0003FD0D0F80090D1F8008009EB870708F0D7
:102FD000F849D7F8608049EA020208F0004848EA58
:102FE00002023A664F7E0268D1F81080012F0CBFB2
:102FF0004FF00047002702EB8802D2F8608028F0EB
:10300000004848EA070717660F7E0268D1F810806B
:10301000012F0CBF4FF400670027D2F8109008F082
:103020001F0807FA08F729F4F04848EA070717616C
:103030003BE04F69D268C2F38202520007FA02F203
:10304000BCE702680F78D2F8608008F0F848B8EB67
:10305000876F03D1176E27F00047176602680F7855
:10306000D2F8648008F0F848B8EB876F03D1576E48
:1030700027F00047576602680F78D2F8688008F09A
:10308000F848B8EB876F03D1976E27F00047976633
:1030900002680F78D2F86C8008F0F848B8EB876FB8
:1030A00003D1D76E27F00047D7660268976817F0FC
:1030B000010F7FF41FAFD2F8C09091F80C800F6819
:1030C000DFF868A208F0180BC7F313082AFA0BFA06
:1030D00029EA08080AEA070748EA0707C2F8C070A1
:1030E000CF68A7F18E42B2F57F027DD10A680768EA
:1030F000C2F31308B8F1000F1ABF92FAA2F8B8FA97
:1031000088F8C2F3846808F1010808F01F08B8F1D4
:10311000090FC2F313082BD8B8F1000F1ABF92FAA7
:10312000A2F8B8FA88F8C2F3846808F1010808F038
:103130001F0803FA08F80EBFC2F3846392FAA2F3E1
:10314000B3FA83F303F1010303F01F0348EA836337
:103150000EBFC2F3846292FAA2F2B2FA82F202F1D4
:10316000010202F01F0202EB420243EA025230E087
:10317000B8F1000F0EBFC2F3846892FAA2F8B8FA51
:1031800088F808F1010808F01F0803FA08F80EBFD4
:10319000C2F3846392FAA2F3B3FA83F303F1010357
:1031A00003F01F0348EA83630EBFC2F3846292FAFE
:1031B000A2F2B2FA82F2DFF8788102F1010202F0A3
:1031C0001F0202EB420208EB025243EA020242F003
:1031D00000728B6804EAD254C2F30452274406FA00
:1031E00002F403FA02F300E005E07E6926EA040433
:1031F00044EA03037B610C6814F0004F3FF47AAE9D
:103200004C4F01684C4EDFF83491B942DFF8308101
:1032100016BF414532464A469268B942494B02F0D0
:10322000E07211BF4145D7F808A0D7F808B14AEAC3
:103230000B0A18BFD3F808A01AF0010F7FF453AEA1
:1032400004F1505A1AF5F80A08BF12F4000F1ED004
:1032500004F1605A1AF52E0A08BF12F0807F4ED092
:1032600004F1405A1AF5900A04BF12F4800F9942F3
:103270007FF440AEB9421CBF41454E46B36842F4AC
:10328000800123F0E07242EA0101B16032E6994226
:103290007FF430AEB9421CBF41454E46B36842F49C
:1032A000000123F0E07242EA0101B160274A264999
:1032B0001268B2FBF1F14FEA4101891C01910091C2
:1032C0003FF418AEB1F1004F29D20029D8BF002138
:1032D00005DD11F0010102D0019A521E0192009AFF
:1032E000491C521C9142B8BF019BBFF603AE5B1E46
:1032F000891C9142A3F101030193F8DBFAE599429D
:103300007FF4F8ADB9421CBF41454E46B36842F068
:10331000807123F0E07242EA0101B160EAE50199AF
:10332000491E0191FCD1E5E50010005CFFFF0F0094
:10333000000020FE002002400023024000630258EB
:103340000021024000600258400D0300D801002413
:103350000068006C70470000F0B583B04FF00006C5
:1033600004003546029602BF012003B0F0BD606D37
:1033700028B9204600F02EF9A66584F85060206830
:103380008168C1F3407129B1816821F03F0121F0CA
:103390002041816020688168C1F3007161BB816850
:1033A00021F03F0121F0004141F0805181608049CE
:1033B0007E480968B1FBF0F0401C029000901BD0E1
:1033C000B0F1004F80F0EC800028D8BF002005DD70
:1033D00010F0010002D00299491E02910099401C90
:1033E000491C8842B8BF029A06DA521E801C8842E5
:1033F000A2F101020292F8DB20688168C1F300713A
:1034000041B9616D012541F010016165A16D41F087
:103410000101A1658168626D12F0100FC1F3800196
:1034200008BF002905D0606D4FF0010540F0100085
:1034300097E0616D21F4807141F00201616581685E
:1034400011F0010F16D000BF01F078FD41F2030129
:10345000884202D9A068102829D0617D237FA26804
:10346000206B490341EA034110430843217F0129AE
:1034700031D12AE04F49504A88421DBF90424F4BFC
:103480009B688B6804BFD1F808C143EA0C0313F0B2
:10349000010FD9D188421ABF9042494849488268F1
:1034A000616822F47C1242EA01018160CCE7607D10
:1034B000227F216B4FEA403040EA024041F0100188
:1034C00041EA000040F00C00D0E7218C3E4A02EBBC
:1034D000414141EA0000616A31B1A26A01F47871A8
:1034E00041EA000042EA00002168384ACB6803EA5A
:1034F000020242EA0000C860206881688368C1F364
:103500008002C3F3C00111431DD1237DE16AC2686B
:1035100041EA833122F0030222F480421143C16068
:1035200094F83800012820D02068016921F00101B9
:1035300001612068616B026922F0704211430161F0
:103540002046FEF73BF9E068012820681CBF016BAC
:1035500021F00F011DD00163606D20F0020040F0EA
:103560000100606503B02846F0BD2068D4E9101260
:10357000B4F83CC0164EA36C0769ACF1010C1143C2
:1035800043EA0C42114307EA0603194341F00101E3
:10359000CEE7A269016B521E21F00F011143DAE759
:1035A0000298401E0290FCD126E70000400D030067
:1035B000D80100240020024000210240006002588F
:1035C00000630258002302400000FEFF03C0F0FF2A
:1035D0001EF800FCF0B587B0064600250095019561
:1035E0000295039504950168A1F18040B0F508307B
:1035F0001CBF07B0F0BD2B48016841F020010160FD
:103600000068294900F020000590086840F0040097
:103610000860086800F004000590086840F00100A8
:103620000860086800F001000590086840F002009A
:10363000086008680324694600F002000590332002
:10364000CDE90004194801F04DFBC0206946CDE9E1
:1036500000041748029501F045FB0094694615489F
:10366000CDE9014501F03EFB144F4FF0090C124C1F
:10367000381527608310C4E901C5C4E90350C200AE
:1036800041002046C4E907356562C4E9051200F02F
:10369000C9FF002818BFFEF709FBF464A66307B052
:1036A000F0BD0000D8440258E04402580008025817
:1036B0000000025800040258D00800241000024004
:1036C0002DE9F047DFF82081044600680D46474B9E
:1036D000474A4045DFF81C9116BF48451946114638
:1036E000896801F01F062169082908BF08271AD038
:1036F000002E1CBF052E092E0FD0404514BF484593
:103700001A46906810F4404F0BD0606D40F02000D6
:1037100060654FF00100BDE8F087C06810F0010F50
:10372000F3D14FF0040701F00FFC824620680068D7
:1037300038421BD1B5F1FF3F14D001F005FCA0EBDE
:103740000A00A84200D86DB920680068384209D143
:10375000606D002184F8501040F004006065032083
:10376000BDE8F087206800683842E3D0606D40F41F
:10377000007060652568E86810F4406F04BF607DE4
:1037800000280FD1286810F0080F0BD0606D20F4CE
:1037900080706065606D10F4805F03D1606D40F0F3
:1037A000010060654D450CBF40462846A84218BF41
:1037B000002E12D0052E18BF092E0ED04D4518BF71
:1037C000A846D8F80C00082F08BF082007D010F42E
:1037D000804F08BF0C2002D002E0E868F3E72860C1
:1037E0000020BDE8F08700000020024000230240D6
:1037F00000630258002102402DE9F0413F4F04468A
:1038000000683F4EB84216BFB0423E493E49896803
:10381000806801F01F0510F0040F18BF022102D0CC
:103820000846BDE8F08194F85000012804BF02204A
:10383000BDE8F081012084F850002046FEF784F8AE
:1038400001004FF0000218BF84F85020E8D1636DEA
:10385000206823F0010323F46063B04243F48073D3
:1038600063650CBF3B460346834218BF002D03D15E
:10387000636D23F480136365636D13F4805F08BF89
:10388000A26503D0A36D23F00603A3654FF01C03CC
:10389000036084F850202068B0420CBF3A460246CC
:1038A000824218BF002D15D0052D18BF092D11D04B
:1038B000626DB04242F48012626508BF3846C0684B
:1038C00010F0007FACD0606D20F4005040F48050C8
:1038D0006065A5E7C26812F0007F05D0626D22F432
:1038E000005242F480526265826822F03F0222F068
:1038F000004242F00402826092E700000020024091
:103900000021024000230240006302582DE9F05FCD
:10391000044601F019FB002C834604BF0120BDE8DA
:10392000F09F94F83500022807D0802161650020BF
:1039300084F834000120BDE8F09FB4492068B44DFC
:10394000B44E8842B44FDFF8D482DFF8D49218BF67
:10395000A84225D0B04218BFB84221D0404518BF78
:1039600048451DD0AF4A90421CBFAF4A904217D085
:10397000AE4A90421CBFAE4A904211D0AD4A90422E
:103980001CBFAD4A90420BD0AC4A90421CBFAC4A1F
:10399000904205D0AB4A90421CBFAB4A904209D13D
:1039A000026822F01E0202602068426922F0800252
:1039B000426103E0026822F00E020260D4F800A027
:1039C0008A45504618BFA8423DD0B04218BFB84201
:1039D00039D0404518BF484535D0924A90421CBF67
:1039E000914A90422FD0914A90421CBF904A9042F7
:1039F00029D0904A90421CBF8F4A904223D08F4AD0
:103A000090421CBF8E4A90421DD08E4A90421CBFED
:103A10008D4A904217D08D4A90421CBF8C4A9042EA
:103A200011D08C4A90421CBF8B4A90420BD08B4ADB
:103A300090421CBF8A4A904205D08A4A90421CBFDD
:103A4000894A924504D1206E026822F48072026095
:103A50006E492068884218BFA8421FD0B04218BFE4
:103A6000B8421BD0404518BF484517D06D49884221
:103A70001CBF6D49884211D06C4988421CBF6C49FB
:103A800088420BD06B4988421CBF6B49884205D0E5
:103A90006A4988421EBF6A4988426A49016821F022
:103AA00001010160DAF8000010F0010F16D000BF2C
:103AB00001F04AFAA0EB0B0005280AD92022626522
:103AC0000321002084F8351084F834000120BDE87B
:103AD000F09FDAF8000010F0010FE9D14B49012204
:103AE0002068884218BFA84225D0B04218BFB8420B
:103AF00021D0404518BF48451DD04A4B98421CBFB5
:103B0000494B984217D0494B98421CBF484B9842AA
:103B100011D0484B98421CBF474B98420BD0474BA3
:103B200098421CBF464B984205D0464B98421CBF5A
:103B3000454B98420AD194F85C304FF03F0CA06D91
:103B400003F01F030CFA03F3836007E094F85C3082
:103B5000A06D03F01F0302FA03F34360206888425C
:103B600018BFA8423DD0B04218BFB84239D0404536
:103B700018BF484535D02B4988421CBF2A49884286
:103B80002FD02A4988421CBF2949884229D0294977
:103B900088421CBF2849884223D0284988421CBF3C
:103BA000274988421DD0274988421CBF26498842A0
:103BB00017D0264988421CBF2549884211D0254983
:103BC00088421CBF244988420BD0244988421CBF2C
:103BD0002349884205D0234988421CBF2249884294
:103BE0000BD1D4E919014160E06E30B1016821F4D4
:103BF00080710160D4E91C0141604FF0000084F83D
:103C0000352084F83400BDE8F09F00001000024029
:103C1000280002404000024058000240700002406C
:103C200088000240A0000240B80002401004024098
:103C3000280402404004024058040240700402403C
:103C400088040240A0040240B8040240085402580C
:103C50001C540258305402584454025858540258C4
:103C60006C5402588054025894540258002804BFDF
:103C70000120704790F83510022903D0802141655A
:103C8000012070472DE9F05FDFF8ECB101687B4A55
:103C90007B4B5945DFF8ECC17B4C7C4D7C4E7D4F16
:103CA000DFF8F481DFF8F491DFF8F4A118BF914256
:103CB00025D0994218BF614521D0A14218BFA94221
:103CC0001DD0B1421CBFDFF8DCE1714517D0DFF831
:103CD000D8E1714518BFB94211D0DFF8D0E1714584
:103CE0001CBFDFF8CCE1714509D0DFF8C8E17145B0
:103CF00018BF414503D0494518BF514524D14FF065
:103D0000040E80F835E0594518BF914217D099420A
:103D100018BF614513D0A14218BFA9420FD0B142CC
:103D20001CBF604881420AD05F48814218BFB94237
:103D300005D05E4881421EBF5D4881425D480868EB
:103D400020F00100086094E0D1F800E0DFF828B12D
:103D50002EF00E0EC1F800E00168594518BF9142DF
:103D60001CD0994218BF614518D0A14218BFA94282
:103D700014D0B1421CBFDFF82CB159450ED0DFF88A
:103D800028B1594518BFB94208D0DFF820B15945CC
:103D90001EBFDFF81CB15945DFF818B1D1F800B0EB
:103DA0002BF0010BC1F800B0DFF8CCE04FF0010BB5
:103DB0000168714518BF914238D0994218BF6145DA
:103DC00034D0A14218BFA94230D0B1421CBF354AFD
:103DD00091422BD0344A914218BFB94226D0334A7F
:103DE00091421CBF324A914220D0324A914218BFC0
:103DF00041451BD0494518BF514517D02E4A914225
:103E00001CBF2E4A914211D02D4A91421CBF2D4A0F
:103E100091420BD02C4A91421CBF2C4A914205D0B2
:103E20002B4A91421CBF2B4A914218D1016E0A685D
:103E300022F480720A6090F85C20816D02F01F020B
:103E40000BFA02F24A60D0E919124A60C16E31B130
:103E50000A6822F480720A60D0E91C124A604FF0AE
:103E60000002016D80F835B0002980F8342018BFB9
:103E700088470020BDE8F09F100002402800024063
:103E8000400002405800024070000240880002409A
:103E9000A00002402804024088040240A00402401E
:103EA000B8040240B800024010040240400402403E
:103EB0005804024070040240085402581C5402582E
:103EC0003054025844540258585402586C54025802
:103ED00080540258945402582DE9F84F0446DFF8F4
:103EE00000840020DFF8009400904FF41652FD4843
:103EF000A56DFE4EFE4F01682068B1FBF2FBD5F8C0
:103F000000A0404529681CBFF74A90422BD0B04220
:103F100018BFB84227D0F74A90421CBFF64A9042D9
:103F200021D0F64A90421CBFF54A90421BD0F54A78
:103F300090421CBFF44A904215D0F44A90421CBFF4
:103F4000F34A90420FD0F34B98421CBFDFF8C8C32E
:103F5000604508D0DFF8C4E370451CBFDFF8C0E35C
:103F6000704540F0308294F85C204FF0080102F078
:103F70001F0201FA02F212EA0A0F41D0404518BFAF
:103F800048452AD0B04218BFB84226D0D94A9042FC
:103F90001CBFD94A904220D0D84A90421CBFD84A70
:103FA00090421AD0D74A90421CBFD74A904214D0B0
:103FB000D64A90421CBFD64A90420ED0D54A904273
:103FC0001CBFD54A904208D0D44A90421FBFD44A61
:103FD0009042026802F0080202D1026802F0040274
:103FE00072B1026822F00402026094F85C0000F0F2
:103FF0001F0001FA00F0A860606D40F001006065EC
:1040000094F85C0000F01F014FF0010000FA01F18C
:1040100011EA0A0F36D02068404518BF484528D01D
:10402000B04218BFB84224D0B24A90421CBFB24A34
:1040300090421ED0B14A90421CBFB14A904218D063
:10404000B04A90421CBFB04A904212D0AF4A904250
:104050001CBFAF4A90420CD0AE4A90421CBFAE4A41
:10406000904206D0AD4A90421EBFAD4A90420068D1
:1040700008D1406910F0800F04D0A960606D40F055
:104080000200606594F85C0000F01F014FF004002E
:1040900000FA01F111EA0A0F36D02068404518BF36
:1040A000484528D0B04218BFB84224D0914A904227
:1040B0001CBF914A90421ED0904A90421CBF904A29
:1040C000904218D08F4A90421CBF8F4A904212D023
:1040D0008E4A90421CBF8E4A90420CD08D4A90422C
:1040E0001CBF8D4A904206D08C4A90421EBF8C4A1B
:1040F0009042006808D1006810F0020F04D0A96057
:10410000606D40F00400606594F85C104FF01000A2
:1041100001F01F0100FA01F111EA0A0F4FD02068E7
:10412000404518BF48452AD0B04218BFB84226D0F3
:10413000704A90421CBF704A904220D06F4A904211
:104140001CBF6F4A90421AD06E4A90421CBF6E4A02
:10415000904214D06D4A90421CBF6D4A90420ED0DE
:104160006C4A90421CBF6C4A904208D06B4A904205
:104170001FBF6B4A9042006800F0040002D1006843
:1041800000F00800D8B1A9602068016811F4802F00
:1041900009D0006810F4002F02D0A16C79B10CE0B6
:1041A000216C51B90BE0016811F4807F03D10168E3
:1041B00021F008010160216C09B12046884794F87C
:1041C0005C10202001F01F0100FA01F111EA0A0F32
:1041D0006ED02068404518BF48452AD0B04218BF6D
:1041E000B84226D0434A90421CBF434A904220D056
:1041F000424A90421CBF424A90421AD0414A9042E1
:104200001CBF414A904214D0404A90421CBF404AD1
:1042100090420ED03F4A90421CBF3F4A904208D085
:104220003E4A90421FBF3E4A9042006800F00200A2
:1042300002D1006800F01000D0B3A96094F83500F6
:1042400004282068016809D011F4802F34D0006858
:1042500010F4002F2DD0E16B51B33DE021F0160199
:1042600001602068416921F080014161206C0028D3
:1042700004BFA06C002804D02068016821F0080168
:10428000016094F85C304FF03F024FF001004FF0B6
:10429000000103F01F0302FA03F2AA6084F835005C
:1042A00084F83410216D002940F08C81BDE8F88F2E
:1042B00014E0616C81B911E0016811F4807F09D1CB
:1042C00003680121002223F01003036084F83510F5
:1042D00084F83420E16B09B120468847606D21E005
:1042E00010000240D8010024280002404000024093
:1042F000580002407000024088000240A0000240C6
:10430000B800024010040240280402404004024069
:10431000580402407004024088040240A004024095
:10432000B8040240002808BFBDE8F88F606D10F0A7
:10433000010F43D02068042184F83510404518BF90
:10434000484521D0B04218BFB8421DD0A04988428C
:104350001CBFA049884217D09F4988421CBF9F4973
:10436000884211D09E4988421CBF9E4988420BD08A
:104370009D4988421CBF9D49884205D09C4988427E
:104380001EBF9C4988429C49016821F001010160DF
:104390002068009901F101010091594503D8016895
:1043A00011F0010FF5D1006810F0010F14BF0320C8
:1043B000012084F83500002084F83400E16C0029E5
:1043C0003FD1BDE8F88FDFF8349248451CBFDFF8D5
:1043D0003092484518D0DFF82C9248451CBFDFF8D2
:1043E0002892484510D0DFF8249248451CBFDFF8DA
:1043F0002092484508D0DFF81C9248451EBFDFF8E0
:1044000018924845BDE8F88F94F85CA04FF0040B73
:10441000D0F800900AF01F0A0BFA0AFB1BEA010F02
:1044200018BF19F0040F4BD019F4004FC5F804B0B1
:104430000DD019F4803F05D0216C002908BFBDE8DC
:10444000F88FBFE0A16C002976D1BDE8F88F19F094
:10445000200F31D1206840451CBF7049884227D0C9
:10446000B04218BFB84223D0594988421CBF5949AD
:1044700088421DD0584988421CBF5849884217D0ED
:10448000574988421CBF5749884211D05649884233
:1044900018BF90420CD0984218BF604508D05649CA
:1044A00088421FBF5E498842016821F0040102D1A1
:1044B000016821F008010160216CE9BBBDE8F88FBB
:1044C0004FF0020B0BFA0AFB1BEA010F18BF19F0A1
:1044D000020F54D019F4004FC5F804B00CD019F4F1
:1044E000803F05D0E16B002908BFBDE8F88F69E087
:1044F000616C09BBBDE8F88F19F0200F3BD1206833
:1045000040451CBF4549884229D0B04218BFB84237
:1045100025D02F4988421CBF2E4988421FD02E49E2
:1045200088421CBF2D49884219D02D4988421CBFA2
:104530002C49884213D000E044E02B49884218BF40
:1045400090420CD0984218BF604508D02A49884252
:104550001FBF33498842016821F00A0102D1016876
:1045600021F0140101604FF001014FF0000084F8C8
:10457000351084F83400E16B21BBBDE8F88F4FF0B3
:10458000080202FA0AF20A4214BF19F0080FBDE845
:10459000F88F016821F00E01016094F85C104FF073
:1045A000010001F01F0100FA01F24FF000016A6002
:1045B000606584F8350084F83410E16C002908BF88
:1045C000BDE8F88F204601B0BDE8F04F0847000075
:1045D0007000024088000240A0000240B800024083
:1045E00010040240280402404004024058040240E3
:1045F0007004024088040240A0040240085402589B
:104600001C5402583054025844540258585402580A
:104610006C540258805402589454025828000240A6
:10462000B80402402DE9F84F044600F08DFC002C40
:10463000834600F04982FE494FF0010620684FF0A2
:104640000005FC4FDFF8F0838842DFF8F093DFF8D5
:10465000F0A31CBFFB4988422AD0FB4988421CBFFB
:10466000FA49884224D0FA4988421CBFF949884255
:104670001ED0F94988421CBFF849884218D0F84931
:1046800088421CBFF749884212D0F74988421CBFB4
:10469000F64988420CD0F64988421CBFF549884249
:1046A00006D0F54988421CBFF449884240F0D980C1
:1046B000DF494FF0020284F83520884284F83450F4
:1046C0001CBFE049884223D0DF4988421CBFDF4934
:1046D00088421DD0DE4988421CBFDE49884217D07F
:1046E000DD4988421CBFDD49884211D0DC4988423F
:1046F0001CBFDC4988420BD0DB4988421CBFDB4928
:10470000884205D0DA4988421EBFDA498842DA4930
:10471000016821F0010101602068006810F0010FBC
:1047200013D000BF00F010FCA0EB0B00052807D948
:1047300020216165032084F835000120BDE8F88F51
:104740002068006810F0010FECD1D4E9021C206849
:10475000D4E9042E009041EA0C01D4E9063CD4F8D7
:1047600020B042EA0E0200680A43C5491A43D4F851
:1047700024E042EA0C02084042EA0B01BEF1040FB9
:1047800041EA000003D1D4E90B1211430843BD49AB
:1047900009686FF30F01B1F1005F11D36168A1F1F6
:1047A0002902052A84BFA1F13F02032A06D9A1F1FB
:1047B0004702012A84BF4F39032901D840F48010F1
:1047C00000990860D4F800C0616ADCF8140004297C
:1047D00020F0070041EA000236D1D4E90A100A436A
:1047E00018B3A36953B1B3F5005F14D000291CBFFF
:1047F0000129022921D003291CD025E019B1012962
:1048000005D0022920D110F0807F1DD015E0B0F135
:10481000C07F19D111E081B1012907D002290CD044
:10482000032908BFB0F1C07F07D00DE010F0807FF2
:1048300003D109E010F0807F06D04FF040006065A2
:1048400084F8356000F040B9CCF814202046FDF71C
:1048500021F994F85C203F2102F01F029140816011
:1048600051E08949884218BFB8420FD0404518BF6F
:1048700048450BD050451CBF8449884206D0844926
:1048800088421CBF8349884240F016814FF00201E4
:1048900084F8351084F834500168A2686FF3101161
:1048A0000091402A08BF102204D0802A0CBF4FF488
:1048B00080420022D4E903CED4E9053142EADC0289
:1048C000D4E907CB42EADE0E734A4EEAD30E734BAD
:1048D0004EEAD10141EADC0141EA1B1C00994CEA95
:1048E0000101016020681044A3FB00100009800052
:1048F000E0652046FDF7CEF894F85C1001F01F014A
:1049000006FA01F141604A49206888421CBF4D49BE
:1049100088423DD04C4988421CBF4C49884237D020
:104920004B4988421CBF4B49884231D04A49884292
:104930001CBF4A4988422BD0494988421CBF49497B
:10494000884225D0484988421CBF484988421FD028
:10495000474988421CBF4749884219D04649884286
:104960001CBF4649884213D04749884218BFB84205
:104970000ED0404518BF48450AD050451CBF43499A
:10498000884205D0424988421CBF424988424DD1E5
:104990003D4A904218BFB8420ED0404518BF484526
:1049A0000AD050451CBF3949884205D03849884251
:1049B0001CBF384988423AD1384BC0B2A0F1080038
:1049C0003749A3FB0030374B63664FEA101000F005
:1049D0001F0301EB800006FA03F1A1662066A068C0
:1049E000802808BF65602079216E0860D4E919012C
:1049F00041606068411E07297DD8C1B24B1E072B5C
:104A00007AD82068904218BFB8420ED0404518BFEF
:104A100048450AD050451CBF1C4A904205D01C4A4C
:104A200090421CBF1B4A90426FD13DE07FE04FE0B7
:104A3000100002401C54025830540258445402588A
:104A400058540258280002404000024058000240DA
:104A50007000024088000240A0000240B8000240FE
:104A6000100402402804024040040240580402405E
:104A70007004024088040240A0040240B8040240CE
:104A80003F8010FE0010005C085402586C5402581D
:104A90008054025894540258F8ABFDA7CDCCCCCC2E
:104AA00000580258805802582548244A02EB8101D8
:104AB000C4E91B102FE000BF4FF040014FF003008E
:104AC000616584F8350000BF4FF00100BDE8F88F44
:104AD0001C49C3B2A3F1100C1B4BA1FB0CC1184421
:104AE000A8284FEA111098BF0830184900F01F039A
:104AF00001EB800002E017E010E006E0144906FA3E
:104B000003F3A366C4E9180169E71348114A02EBED
:104B10008101C4E91B1006FA03F06067E06E0560CE
:104B2000D4E91C01416002E0E566256765676565BB
:104B300084F835600020BDE8F88F0000FC5802586A
:104B400040590258ABAAAAAAF0FBFDBF00080240D8
:104B500080080240FC0802404009024070B504464B
:104B600000F0F2F9B4F1FF3F054602D004480078A6
:104B7000044400F0E9F9401BA042FAD370BD0000E4
:104B8000CC0100242DE9F04F4A4D012891B0064692
:104B90000ED0022E15D0042E1CD0082E23D0464C49
:104BA000102EDFF81891464F18BF202E24D04CE06D
:104BB000B5F8400D00F10100A5F8400D11B0BDE8B9
:104BC000F08FB5F8420D00F10100A5F8420D11B0CB
:104BD000BDE8F08FB5F8440D00F10100A5F8440DD3
:104BE00011B0BDE8F08FB5F8460D00F10100A5F851
:104BF000460D11B0BDE8F08FB4E80F1D0DF1200E89
:104C00008DE80F1D94E80F1DA4F120048EE80F1D00
:104C10002C484FF0100100F07FF9202180464846D3
:104C200000F07AF940EA4801387841EA800000F063
:104C30000F00387079685DF8200008447860C1176B
:104C400000EB91708010A5F84C0D402E1EBFB6F5FC
:104C5000007F11B0BDE8F08F04F14004B4E84F15B7
:104C60008DE84F1594E85F110DF1200A8AE85F1175
:104C70004FF04001484600F04FF94FF400710446F0
:104C8000484600F049F940EA4401787841EA80005A
:104C900000F00F007870B9685DF820000844B86033
:104CA000C11700EB91708010A5F84E0D11B0BDE852
:104CB000F08F0000D01000243830010800040258A2
:104CC0003C000024000C02584FF0B041D1F888207D
:104CD000024208BF704710B5C1F88800FFF752FFC5
:104CE00010BD00000B680022DFF824C2002B08BFB3
:104CF00070472DE9F84FDFF81CE2012703244FF03D
:104D00000F0800BF0B6807FA02F6334000F0F88086
:104D10000D7905F00305012D18BF022D1AD1D0F829
:104D200008904FEA4205D1F80CB004FA05FA29EAD6
:104D30000A090BFA05F545EA09058560456891F809
:104D4000049025EA0605C9F3001909FA02F646EAB5
:104D5000050545604D6834EA05050BD0C668550069
:104D6000D1F808A004FA05F926EA09060AFA05F5B9
:104D70003543C5600D7905F00305022D12D1D50824
:104D8000D1F810A04FEA427900EB85052E6A4FEA70
:104D9000D96908FA09FB0AFA09F926EA0B0649EA71
:104DA00006062E6291F804900668550009F0030982
:104DB00004FA05FA09FA05F526EA0A0635430560FC
:104DC0004D6815F4403F7DD0DEF8005045F00205F7
:104DD000CEF80050DEF8005022F0030606F1B0468F
:104DE00005F0020500959507D6F808942D0FA0F15F
:104DF000B04B08FA05FABBF5003B29EA0A0908BFDF
:104E00004FF0000A48D0A0F1B04ABAF5013A08BF05
:104E10004FF0010A40D0A0F1B04ABAF5023A08BFFB
:104E20004FF0020A38D0A0F1B04ABAF5033A08BFF1
:104E30004FF0030A30D0A0F1B04ABAF5043A08BFE7
:104E40004FF0040A28D0A0F1B04ABAF5053A08BFDD
:104E50004FF0050A20D0A0F1B04ABAF5063A08BFD3
:104E60004FF0060A18D0A0F1B04ABAF5073A08BFC9
:104E70004FF0070A10D0A0F1B04ABAF5083A08BFBF
:104E80004FF0080A08D0A0F1B04ABAF5093A0CBFB1
:104E90004FF0090A4FF00A0A0AFA05FA4FF0B04536
:104EA0004AEA0909C6F80894D1F804902E6819F462
:104EB000801F26EA030618BF1E432E60D1F8049017
:104EC0006E6800E01CE019F4001F26EA030618BF14
:104ED0001E436E60DCF804504E6825EA030516F4A4
:104EE000003F18BF1D43CCF80450DCF800504E685A
:104EF00025EA030516F4803F18BF1D43CCF8005087
:104F00000B68521CD3407FF4FDAEBDE8F88F000063
:104F100080000058F44402580069084018BF01207E
:104F20007047426921EA0203114043EA014181616D
:104F30007047002A08BF0904816170470148006872
:104F4000000C70470010005C01488068704700004A
:104F5000CC0100244DF8044D90F84120202A27D19F
:104F600090F84020012A23D0012380F840302422E9
:104F70004FF0000C202380F841200268146824F0D0
:104F8000010414600268146824F4805414600268F8
:104F900014682143116001680A6842F001020A6046
:104FA00080F8413080F840C000205DF8044B704725
:104FB0005DF8044B022070474DF8044D90F84120F5
:104FC000202A25D190F84020012A21D0012380F801
:104FD000403024224FF0200C002480F84120026849
:104FE000136823F0010313600268136823F47063ED
:104FF00043EA0121116001680A6842F001020A6077
:1050000080F841C080F8404000205DF8044B7047B4
:105010005DF8044B02207047002804BF0120704750
:1050200070B5044690F84100002520B9204684F868
:10503000405000F003FA242084F841002068016801
:1050400021F001010160D4E9001020F070600861D6
:105050002068816821F400418160E06821680128AE
:10506000A0680CBF40F4004040F404408860E06851
:10507000022802D12168800248602021206842680D
:1050800042F4004242F0007242602068C26822F49A
:105090000042C260D4F800C0D4E90402A3691043FE
:1050A00040EA0320CCF80C002368D4E9070210433F
:1050B00018602068026842F001020260656484F8AA
:1050C0004110256384F84250002070BD2DE9F84F4F
:1050D000044690F841009B4692460A9D0F462028C0
:1050E00040F0CB8094F84000012800F0C6800120F9
:1050F00084F84000FFF728FF01220646192300909C
:10510000D103204604F008FB002876D15C49FF203B
:1051100021234FF00008102284F84130C7F3090919
:1051200084F8422049F47F07C4F8448047F0807730
:10513000A4F82AB0628DDFF84CB1C4F824A0FF2A8D
:10514000C4F834800BD927F00042208542F4005384
:105150002268D2F804C02CEA0101194311E0628DE3
:10516000228594F8282049EA02432268D2F804A054
:1051700023F0004C2AEA01034CF4005141F0007185
:1051800019435160618D4FF0200A00295BD02068DF
:10519000806910F0020F14D132462946204604F0EF
:1051A000D9F9002855D1B5F1FF3F05D0FFF7CCFE66
:1051B000811BA94217D8B5B12068806910F0020F91
:1051C000EAD0606A216800788862606A401C606288
:1051D000608D401E6085208D401E80B22085618DCF
:1051E000F9B158B12CE0606C84F8408040F02000A8
:1051F000606484F841A084F842802AE000222B46B3
:1052000080212046009604F087FA10BB608DFF28AD
:1052100008D9FF2020852068416821EA0B01394325
:1052200041600DE0608D2085216894F828004A686F
:1052300049EA004040F0007022EA0B021043486047
:10524000608D0028A3D132462946204604F09BFAFF
:1052500010B10120BDE8F88F20680B49C0F81CA0F0
:10526000206842681140416084F841A084F842807F
:10527000002084F84080BDE8F88F0220BDE8F88F58
:10528000FF67FF03FF63FF0300E800FE2DE9FF4F08
:1052900083B0044690F841009A468946DDE91086BD
:1052A000DDF848B0202840F0BF80B8F1000F12BFF1
:1052B000002E4FF4007060642AD094F8400001285A
:1052C0007ED0012084F84000FFF73EFE0122054613
:1052D00019230090D103204604F01EFAC0B900271C
:1052E000C4F82480222084F84100402184F8421030
:1052F00067646685534667634946CDE900B5059AFC
:10530000204604F0CDF9002818BF84F8407003D07F
:1053100007B00120BDE8F08F618DC9F3090A444848
:105320004AF47F06DFF80C81FF2946F080764FF0C3
:10533000FF090CD9A4F8289026F00041226841F416
:105340001051536823EA00000843506012E0618D59
:10535000218594F828104AEA01422168D1F804C056
:1053600022F000432CEA000243F4105040F0007099
:105370001043486000225B4604212046009504F05B
:10538000CBF90028C4D12068616A406A0870606A5D
:10539000401C6062208D401E80B22085618D491EB8
:1053A0006185618D21B318BB00225B4680212046B8
:1053B000009504F0B1F90028AAD1608DFF2800E023
:1053C00032E007D9A4F828902068416821EA080152
:1053D00031430CE0608D208594F828004AEA0041B2
:1053E000206841F00071426822EA080211434160DE
:1053F000608D0028BED12A465946204604F0C3F9E4
:10540000002885D1206820220B49C26120684368AA
:105410001940416084F8412084F84270002084F8EB
:10542000407007B0BDE8F08F07B00220BDE8F08FF4
:10543000FF67FF03FF63FF0300E800FE30B587B09E
:1054400027490022284C04230092019202920392E1
:1054500004921222D0F800C02248ACF18045B5F584
:10546000A84522D0ACF18045B5F5B0451CBF07B0CA
:1054700030BDD1F800C04CF0020CC1F800C0096882
:10548000049301F0020105914FF44061CDE900124F
:105490006946FFF727FC206840F480002060206800
:1054A00000F48000059007B030BDD1F800C04CF08A
:1054B000020CC1F800C00968049301F002010591D3
:1054C0004FF4C071CDE900126946FFF70BFC20686C
:1054D00040F400102060206800F40010E2E70000B3
:1054E000E044025800040258E84402580248816827
:1054F0000278114481607047CC010024032010B56C
:1055000000F0EEF802F04CFB0F4A104913681268E5
:10551000C3F3032302F00F02CB5C895C03F01F028C
:1055200001F01F01D0400A4A20FA01F11160094937
:1055300008600F2000F010F800281CBF012010BDEB
:1055400000F07CF8002010BD18440258E830010833
:10555000DC010024D801002470B50D4D04462878E4
:10556000A0B14FF47A71B1FBF0F00A490968B1FBC0
:10557000F0F003F01BF848B9102C07D200222146A6
:10558000501E00F07DF800206C6070BD012070BDE1
:10559000CC010024D8010024DFF858C0F0B44378CF
:1055A0000CF10402111DCCF800300378002B04BF6D
:1055B000002010601BD043681360057BC37A827A99
:1055C00090F80DC02F07847B47EA0367C57B47EA45
:1055D000C242467A42EA8C42037A42EA444242EAB2
:1055E0000542007842EA062242EA4302104308607C
:1055F000F0BC704798ED00E0BFF35F8F04480021D6
:105600000368044A23F4803303601160704700008C
:1056100024ED00E094ED00E0074A40F00100054968
:105620001060086840F480300860BFF34F8FBFF30C
:105630006F8F704724ED00E094ED00E0074882B0E2
:10564000016841F002010160006800220F2100F0B2
:1056500002000090901E02B000F012B8F44402580C
:105660000028B8BF7047410900F01F008A000121DF
:1056700002F1E02201FA00F0C2F8000170470000D8
:10568000164B30B41B68C3F30223C3F1070CBCF103
:10569000040F88BF4FF0040C1C1D072C34BF0023DF
:1056A000DB1E012404FA0CFC04FA03F5ACF101043E
:1056B0002140A5F1010C99400CEA02021143002897
:1056C0004FEA0111B8BF00F00F0000F1E020ACBFBD
:1056D00080F8001480F8141D30BC70470CED00E019
:1056E000074900F007004FF6FF030A681A4042EA34
:1056F000002040F0FD7040F08060086070470000BE
:105700000CED00E0BFF34F8F05480649026802F434
:10571000E06211430160BFF34F8F00BFFDE700005F
:105720000CED00E00400FA0501680123C0F8003523
:10573000002280F8F424886940F000608861486D98
:1057400040F0030040F080504865104670477047B5
:105750000068416200207047F0B4D0F800C0002912
:10576000DCF8243004BF43EA0240CCF828001CD007
:10577000DCF8284000204D1E03EB14431CBF2C46D0
:105780004FF4827509D005EB8006471CF8B25CF82F
:105790000660844203EB1643F5D84FF4807000EBAB
:1057A000810043EA02424CF80020F0BC0020704720
:1057B000D0F8080507F04ABB01EBC10200EB8202FA
:1057C000D0F80805D26C07F095BA01EBC10200EBE6
:1057D0008202D0F80805D2F88C2207F0EDBAD0F892
:1057E000080507F035BB01F00F034FF0010270B55B
:1057F00004464FF0000503EBC30011F0800F04EBEB
:10580000800019BF00F13C0180F83D2000F51F71B8
:1058100080F87D520B7094F8BC04012804BF02206C
:1058200070BD84F8BC24206808F04AF8002084F891
:10583000BC5470BD70B50446406801F00F0282424E
:1058400084BF012070BD01F00F004FF0010311F083
:10585000800F4FF0000500EBC00004EB800019BF83
:1058600000F13C0180F83D3000F51F7180F87D5259
:105870008D700A7094F8BC04012804BF022070BD2A
:1058800084F8BC34206808F049FA002084F8BC543D
:1058900070BD70B504464FF0010C01F00F004FF0E1
:1058A000000511F0800F00EBC00104EB810119BF6E
:1058B00081F83DC03C3181F87D5201F51F714E7871
:1058C000CA600B71002E087018BF0881022B08BF38
:1058D0004D7194F8BC04012804BF022070BD84F807
:1058E000BCC4206807F016FF284684F8BC5470BD7D
:1058F00070B501F00F048C46002504EBC40100EBE9
:105900008101C1F89C52C1F89432C1F88C2281F80F
:105910007D5281F87C4201F51F710369012B08BF9C
:105920004A611CF00F0F027C006803D008F052FAA5
:10593000002070BD08F026F9FAE770B5044640680B
:1059400001F00F020D46824284BF012070BD15F0A8
:10595000800F4FF000064FF0010014BF02EBC201B0
:1059600005EBC50104EB810119BF81F83D003C3115
:1059700081F87D6201F51F7188700A7094F8BC246B
:10598000012A04BF022070BD84F8BC04206808F01E
:10599000F2F915F00F0F05D1217C04F2C442206802
:1059A00008F08EF9002084F8BC6470BD70B501F079
:1059B0000F048C46002604EBC401012500EB810195
:1059C000CE654B65CA6481F83D5001F83C4F0369D0
:1059D000012B08BF4A611CF00F0F027C006803D046
:1059E00008F0F8F9002070BD08F0CCF8FAE70000E4
:1059F0002DE9F04F056883B00446284608F0B4FB53
:105A000000281CBF03B0BDE8F08F206808F0D7FB6A
:105A1000002804BF03B0BDE8F08FD5F80808C0F334
:105A20000D20C4F8FC04206808F0C9FB10F0020F38
:105A300004D02068416901F002014161206808F04A
:105A4000BEFB10F0100F35D02068816921F01001E5
:105A500081612F6A07F00F01C7F3434001EBC101D9
:105A6000022804EB810101F51F7602D0062811D02F
:105A70001BE047F6F070074217D0C7F30A123169EE
:105A80001746284608F09FFB3169306A3944316176
:105A9000384409E00822284604F2C44108F093FB88
:105AA000306AC7F30A11084430622068816941F006
:105AB00010018161206808F082FB10F4002F7CD077
:105AC0002068002608F05BFB5FEA00081CBFDFF8D7
:105AD000DCB6DFF8DC9670D018F0010F6ED02068CD
